:020000040000FA
:0400000080310E2815
:100008007E1480314E01161A0C1E0C288031A72050
:100018007E100900803110288031B820F4007E104D
:100028004001803169284001980199019A013F30C7
:10003800920070309300FF3094007F307E01CE0034
:10004800F030C3003730B800C401B9018030CF00A8
:10005800BA01C501D0013730BB00F030C600FF300F
:10006800D100D513D417D313B930F2000030F30000
:100078008031AD204E01161617307E019F00080012
:10008800FA300032890B452840018E1B080074089D
:10009800031952288031B220F40108008031B520BC
:1000A800F401F40A0800C4304F0196007E3097002E
:1000B80080309800673099006F309A0060309B005C
:1000C80013309C003F309D00080080317A20803139
:1000D8004430F2000030F3008031AD2080318B17BE
:1000E8000B177408031D7528630075288031572085
:1000F800803180311720803180319E2080318031DD
:100108008620080057304B019F00C2309D009C019B
:100118004E018C1280304B019E000800700871045B
:1001280003199B2871088A0070080A0080317E0133
:10013800D5130800623051018D008F019101023002
:100148009300920108007E01D51F0800803192209B
:1001580008007308F1007208F00008004B019E13B4
:0C01680008004B019E170800013408003D
:020000040001F9
:0A000E00EC3FFF3F9F3FFF3FFF3F25
:00000001FF
